{
  "address": "0x843D0AAD40295f2198ef528ad747CDF6AB9000e4",
  "abi": [
    {
      "inputs": [
        {
          "internalType": "contract IBentoBoxMinimal",
          "name": "_bentoBox",
          "type": "address"
        },
        {
          "internalType": "contract IStargateRouter",
          "name": "_stargateRouter",
          "type": "address"
        },
        {
          "internalType": "address",
          "name": "_factory",
          "type": "address"
        },
        {
          "internalType": "bytes32",
          "name": "_pairCodeHash",
          "type": "bytes32"
        },
        {
          "internalType": "contract IStargateWidget",
          "name": "_stargateWidget",
          "type": "address"
        }
      ],
      "stateMutability": "nonpayable",
      "type": "constructor"
    },
    {
      "inputs": [],
      "name": "InsufficientGas",
      "type": "error"
    },
    {
      "inputs": [],
      "name": "NotStargateRouter",
      "type": "error"
    },
    {
      "inputs": [],
      "name": "TooLittleReceived",
      "type": "error"
    },
    {
      "anonymous": false,
      "inputs": [
        {
          "indexed": true,
          "internalType": "bytes32",
          "name": "srcContext",
          "type": "bytes32"
        },
        {
          "indexed": false,
          "internalType": "bool",
          "name": "failed",
          "type": "bool"
        }
      ],
      "name": "StargateSushiXSwapDst",
      "type": "event"
    },
    {
      "anonymous": false,
      "inputs": [
        {
          "indexed": true,
          "internalType": "bytes32",
          "name": "srcContext",
          "type": "bytes32"
        }
      ],
      "name": "StargateSushiXSwapSrc",
      "type": "event"
    },
    {
      "inputs": [
        {
          "internalType": "contract IERC20",
          "name": "token",
          "type": "address"
        }
      ],
      "name": "approveToStargateRouter",
      "outputs": [],
      "stateMutability": "nonpayable",
      "type": "function"
    },
    {
      "inputs": [],
      "name": "bentoBox",
      "outputs": [
        {
          "internalType": "contract IBentoBoxMinimal",
          "name": "",
          "type": "address"
        }
      ],
      "stateMutability": "view",
      "type": "function"
    },
    {
      "inputs": [
        {
          "internalType": "uint8[]",
          "name": "actions",
          "type": "uint8[]"
        },
        {
          "internalType": "uint256[]",
          "name": "values",
          "type": "uint256[]"
        },
        {
          "internalType": "bytes[]",
          "name": "datas",
          "type": "bytes[]"
        }
      ],
      "name": "cook",
      "outputs": [],
      "stateMutability": "payable",
      "type": "function"
    },
    {
      "inputs": [],
      "name": "factory",
      "outputs": [
        {
          "internalType": "address",
          "name": "",
          "type": "address"
        }
      ],
      "stateMutability": "view",
      "type": "function"
    },
    {
      "inputs": [
        {
          "internalType": "uint16",
          "name": "_dstChainId",
          "type": "uint16"
        },
        {
          "internalType": "uint8",
          "name": "_functionType",
          "type": "uint8"
        },
        {
          "internalType": "address",
          "name": "_receiver",
          "type": "address"
        },
        {
          "internalType": "uint256",
          "name": "_gas",
          "type": "uint256"
        },
        {
          "internalType": "uint256",
          "name": "_dustAmount",
          "type": "uint256"
        },
        {
          "internalType": "bytes",
          "name": "_payload",
          "type": "bytes"
        }
      ],
      "name": "getFee",
      "outputs": [
        {
          "internalType": "uint256",
          "name": "a",
          "type": "uint256"
        },
        {
          "internalType": "uint256",
          "name": "b",
          "type": "uint256"
        }
      ],
      "stateMutability": "view",
      "type": "function"
    },
    {
      "inputs": [],
      "name": "pairCodeHash",
      "outputs": [
        {
          "internalType": "bytes32",
          "name": "",
          "type": "bytes32"
        }
      ],
      "stateMutability": "view",
      "type": "function"
    },
    {
      "inputs": [
        {
          "internalType": "uint16",
          "name": "",
          "type": "uint16"
        },
        {
          "internalType": "bytes",
          "name": "",
          "type": "bytes"
        },
        {
          "internalType": "uint256",
          "name": "",
          "type": "uint256"
        },
        {
          "internalType": "address",
          "name": "_token",
          "type": "address"
        },
        {
          "internalType": "uint256",
          "name": "amountLD",
          "type": "uint256"
        },
        {
          "internalType": "bytes",
          "name": "payload",
          "type": "bytes"
        }
      ],
      "name": "sgReceive",
      "outputs": [],
      "stateMutability": "nonpayable",
      "type": "function"
    },
    {
      "inputs": [],
      "name": "stargateRouter",
      "outputs": [
        {
          "internalType": "contract IStargateRouter",
          "name": "",
          "type": "address"
        }
      ],
      "stateMutability": "view",
      "type": "function"
    },
    {
      "inputs": [],
      "name": "stargateWidget",
      "outputs": [
        {
          "internalType": "contract IStargateWidget",
          "name": "",
          "type": "address"
        }
      ],
      "stateMutability": "view",
      "type": "function"
    },
    {
      "stateMutability": "payable",
      "type": "receive"
    }
  ],
  "transactionHash": "0x02561326a2136ba1689ae6683d91a2b80bccf4c77bc751f965f60dfcacef4451",
  "args": [
    "0x74c764D41B77DBbb4fe771daB1939B00b146894A",
    "0x53Bf833A5d6c4ddA888F69c22C88C9f356a41614",
    "0xc35DADB65012eC5796536bD9864eD8773aBc74C4",
    "0xe18a34eb0e04b04f7a0ac29a6e80748dca96319b42c54d679cb821dca90c6303",
    "0x962F92cEe9A559d705f8999C92752EbCDD550616"
  ],
  "numDeployments": 4,
  "solcInputHash": "1d14b2aaeaed8fa4dc701a36788357cf",
  "bytecode": "0x6101206040523480156200001257600080fd5b506040516200500f3803806200500f8339810160408190526200003591620000d2565b6001600160a01b03808616608081905281861660a05281831660c05290841660e0526101008390526040805163577268d960e11b8152905163aee4d1b29160048082019260009290919082900301818387803b1580156200009557600080fd5b505af1158015620000aa573d6000803e3d6000fd5b50505050505050505062000146565b6001600160a01b0381168114620000cf57600080fd5b50565b600080600080600060a08688031215620000eb57600080fd5b8551620000f881620000b9565b60208701519095506200010b81620000b9565b60408701519094506200011e81620000b9565b6060870151608088015191945092506200013881620000b9565b809150509295509295909350565b60805160a05160c05160e05161010051614dba620002556000396000818161019401528181611501015281816116240152612e0701526000818161022a015281816114de015281816115cd01528181612da10152612de401526000818161016001526126840152600081816101d601528181610b1a01528181610cad01528181610f48015261242601526000818160cd01528181610352015281816105d2015281816105fd015281816107e601528181610ff3015281816110d4015281816111a00152818161126a015281816117f70152818161181e0152818161185f01528181611a8401528181611c9b01528181611ddf01528181611fdf01528181612154015261228b0152614dba6000f3fe60806040526004361061009a5760003560e01c80639aab924811610069578063ab8236f31161004e578063ab8236f3146101f8578063c45a015514610218578063d1ac35351461024c57600080fd5b80639aab924814610182578063a9e56f3c146101c457600080fd5b8063656f3d64146100a65780636b2ace87146100bb5780636ce4fe03146101195780636f435ac21461014e57600080fd5b366100a157005b600080fd5b6100b96100b43660046139d0565b61026c565b005b3480156100c757600080fd5b506100ef7f000000000000000000000000000000000000000000000000000000000000000081565b60405173ffffffffffffffffffffffffffffffffffffffff90911681526020015b60405180910390f35b34801561012557600080fd5b50610139610134366004613ae8565b610b15565b60408051928352602083019190915201610110565b34801561015a57600080fd5b506100ef7f000000000000000000000000000000000000000000000000000000000000000081565b34801561018e57600080fd5b506101b67f000000000000000000000000000000000000000000000000000000000000000081565b604051908152602001610110565b3480156101d057600080fd5b506100ef7f000000000000000000000000000000000000000000000000000000000000000081565b34801561020457600080fd5b506100b9610213366004613b6f565b610c95565b34801561022457600080fd5b506100ef7f000000000000000000000000000000000000000000000000000000000000000081565b34801561025857600080fd5b506100b9610267366004613bff565b610f2c565b825160005b81811015610b0e57600085828151811061028d5761028d613c1c565b60200260200101519050600060ff168160ff1614156103ba5760008060008060008887815181106102c0576102c0613c1c565b60200260200101518060200190518101906102db9190613c6b565b6040517fc0a47c9300000000000000000000000000000000000000000000000000000000815273ffffffffffffffffffffffffffffffffffffffff8681166004830152306024830152851515604483015260ff851660648301526084820184905260a48201839052959a50939850919650945092507f00000000000000000000000000000000000000000000000000000000000000009091169063c0a47c939060c401600060405180830381600087803b15801561039857600080fd5b505af11580156103ac573d6000803e3d6000fd5b505050505050505050610b05565b60ff811660011415610431576000806000808786815181106103de576103de613c1c565b60200260200101518060200190518101906103f99190613cc5565b935093509350935061042884338585858e8c8151811061041b5761041b613c1c565b6020026020010151610f90565b50505050610b05565b60ff81166002141561049457600080600080600088878151811061045757610457613c1c565b60200260200101518060200190518101906104729190613d0d565b9450945094509450945061048a85338686868661106b565b5050505050610b05565b60ff8116600b14156104eb5760008060008685815181106104b7576104b7613c1c565b60200260200101518060200190518101906104d29190613d6a565b9250925092506104e38383836112ce565b505050610b05565b60ff8116600314156106315760008060008087868151811061050f5761050f613c1c565b602002602001015180602001905181019061052a9190613cc5565b935093509350935081600014156105cc576040517f70a0823100000000000000000000000000000000000000000000000000000000815230600482015273ffffffffffffffffffffffffffffffffffffffff8516906370a0823190602401602060405180830381865afa1580156105a5573d6000803e3d6000fd5b505050506040513d601f19601f820116820180604052508101906105c99190613dad565b91505b6105f7847f0000000000000000000000000000000000000000000000000000000000000000846112f5565b610428847f00000000000000000000000000000000000000000000000000000000000000008585858e8c8151811061041b5761041b613c1c565b60ff81166004141561073d57600080600086858151811061065457610654613c1c565b602002602001015180602001905181019061066f9190613d6a565b92509250925080600014156107325773ffffffffffffffffffffffffffffffffffffffff83161561072f576040517f70a0823100000000000000000000000000000000000000000000000000000000815230600482015273ffffffffffffffffffffffffffffffffffffffff8416906370a0823190602401602060405180830381865afa158015610704573d6000803e3d6000fd5b505050506040513d601f19601f820116820180604052508101906107289190613dad565b9050610732565b50475b6104e38383836112f5565b60ff81166005141561086257600080600080600088878151811061076357610763613c1c565b602002602001015180602001905181019061077e9190613d0d565b94509450945094509450826000148015610796575081155b15610854576040517ff7888aec00000000000000000000000000000000000000000000000000000000815273ffffffffffffffffffffffffffffffffffffffff86811660048301523060248301527f0000000000000000000000000000000000000000000000000000000000000000169063f7888aec90604401602060405180830381865afa15801561082d573d6000803e3d6000fd5b505050506040513d601f19601f820116820180604052508101906108519190613dad565b91505b61048a85308686868661106b565b60ff8116600614156108b35760008085848151811061088357610883613c1c565b602002602001015180602001905181019061089e9190613dc6565b915091506108ac828261137b565b5050610b05565b60ff8116600c14156108fd576000808584815181106108d4576108d4613c1c565b60200260200101518060200190518101906108ef9190613e00565b915091506108ac8282611471565b60ff811660071415610a1b5760008060008087868151811061092157610921613c1c565b602002602001015180602001905181019061093c9190613e2e565b935093509350935060008460001415610a03578260008151811061096257610962613c1c565b60209081029190910101516040517f70a0823100000000000000000000000000000000000000000000000000000000815230600482015273ffffffffffffffffffffffffffffffffffffffff909116906370a0823190602401602060405180830381865afa1580156109d8573d6000803e3d6000fd5b505050506040513d601f19601f820116820180604052508101906109fc9190613dad565b9450600190505b610a1085858585856114d6565b505050505050610b05565b60ff811660081415610a61576000848381518110610a3b57610a3b613c1c565b6020026020010151806020019051810190610a569190613f67565b90506108ac8161174a565b60ff811660091415610aad576000848381518110610a8157610a81613c1c565b6020026020010151806020019051810190610a9c9190614294565b9050610aa781611a74565b50610b05565b60ff8116600a1415610b0557600080600080878681518110610ad157610ad1613c1c565b6020026020010151806020019051810190610aec9190614591565b9350935093509350610b00848484846123ac565b505050505b50600101610271565b5050505050565b6000807f000000000000000000000000000000000000000000000000000000000000000073ffffffffffffffffffffffffffffffffffffffff16630a512369898989604051602001610b92919060609190911b7fffffffffffffffffffffffffffffffffffffffff00000000000000000000000016815260140190565b60405160208183030381529060405287604051602001610bb2919061470f565b60405160208183030381529060405260405180606001604052808c81526020018b81526020018d604051602001610c14919060609190911b7fffffffffffffffffffffffffffffffffffffffff00000000000000000000000016815260140190565b6040516020818303038152906040528152506040518663ffffffff1660e01b8152600401610c4695949392919061474b565b6040805180830381865afa158015610c62573d6000803e3d6000fd5b505050506040513d601f19601f82011682018060405250810190610c8691906147a3565b90999098509650505050505050565b3373ffffffffffffffffffffffffffffffffffffffff7f00000000000000000000000000000000000000000000000000000000000000001614610d04576040517f8c66bf5600000000000000000000000000000000000000000000000000000000815260040160405180910390fd5b600080600080600085806020019051810190610d2091906147c7565b939850919650945092509050620186a06000815a1015610da057610d5b73ffffffffffffffffffffffffffffffffffffffff8b16888b61272f565b5060405160018082529083907fd02bbeba90c0a3636769d1b8c9f07e2b5e4131b8fbcc2d6ba56054e20b98d75d9060200160405180910390a250505050505050610f24565b6000825a610dae919061489c565b6040517f656f3d64000000000000000000000000000000000000000000000000000000008152909150309063656f3d64908390610df3908b908b908b90600401614976565b600060405180830381600088803b158015610e0d57600080fd5b5087f193505050508015610e1f575060015b610e7a573d808015610e4d576040519150601f19603f3d011682016040523d82523d6000602084013e610e52565b606091505b50610e7473ffffffffffffffffffffffffffffffffffffffff8d168a8d61272f565b60019250505b4715610edf5760405173ffffffffffffffffffffffffffffffffffffffff8916904790600081818185875af1925050503d8060008114610ed6576040519150601f19603f3d011682016040523d82523d6000602084013e610edb565b606091505b5050505b837fd02bbeba90c0a3636769d1b8c9f07e2b5e4131b8fbcc2d6ba56054e20b98d75d83604051610f13911515815260200190565b60405180910390a250505050505050505b505050505050565b610f8d73ffffffffffffffffffffffffffffffffffffffff82167f00000000000000000000000000000000000000000000000000000000000000007fffffffffffffffffffffffffffffffffffffffffffffffffffffffffffffffff612803565b50565b6040517f02b9446c00000000000000000000000000000000000000000000000000000000815273ffffffffffffffffffffffffffffffffffffffff87811660048301528681166024830152858116604483015260648201859052608482018490527f000000000000000000000000000000000000000000000000000000000000000016906302b9446c90839060a401604080518083038185885af115801561103c573d6000803e3d6000fd5b50505050506040513d601f19601f8201168201806040525081019061106191906147a3565b5050505050505050565b8015611147576040517f97da6d3000000000000000000000000000000000000000000000000000000000815273ffffffffffffffffffffffffffffffffffffffff87811660048301528681166024830152858116604483015260648201859052608482018490527f000000000000000000000000000000000000000000000000000000000000000016906397da6d309060a40160408051808303816000875af115801561111c573d6000803e3d6000fd5b505050506040513d601f19601f8201168201806040525081019061114091906147a3565b5050610f24565b821561120e576040517fda5139ca00000000000000000000000000000000000000000000000000000000815273ffffffffffffffffffffffffffffffffffffffff878116600483015260248201859052600060448301527f0000000000000000000000000000000000000000000000000000000000000000169063da5139ca90606401602060405180830381865afa1580156111e7573d6000803e3d6000fd5b505050506040513d601f19601f8201168201806040525081019061120b9190613dad565b91505b6040517ff18d03cc00000000000000000000000000000000000000000000000000000000815273ffffffffffffffffffffffffffffffffffffffff878116600483015286811660248301528581166044830152606482018490527f0000000000000000000000000000000000000000000000000000000000000000169063f18d03cc90608401600060405180830381600087803b1580156112ae57600080fd5b505af11580156112c2573d6000803e3d6000fd5b50505050505050505050565b6112f073ffffffffffffffffffffffffffffffffffffffff8416338484612985565b505050565b73ffffffffffffffffffffffffffffffffffffffff831615611332576112f073ffffffffffffffffffffffffffffffffffffffff8416838361272f565b60405173ffffffffffffffffffffffffffffffffffffffff83169082156108fc029083906000818181858888f19350505050158015611375573d6000803e3d6000fd5b50505050565b6040517f70a0823100000000000000000000000000000000000000000000000000000000815230600482015273ffffffffffffffffffffffffffffffffffffffff831690632e1a7d4d9082906370a0823190602401602060405180830381865afa1580156113ed573d6000803e3d6000fd5b505050506040513d601f19601f820116820180604052508101906114119190613dad565b6040518263ffffffff1660e01b815260040161142f91815260200190565b600060405180830381600087803b15801561144957600080fd5b505af115801561145d573d6000803e3d6000fd5b5050505061146d600082476112f5565b5050565b8173ffffffffffffffffffffffffffffffffffffffff1663d0e30db0826040518263ffffffff1660e01b81526004016000604051808303818588803b1580156114b957600080fd5b505af11580156114cd573d6000803e3d6000fd5b50505050505050565b6000806115257f000000000000000000000000000000000000000000000000000000000000000088877f00000000000000000000000000000000000000000000000000000000000000006129e3565b90508060018251611536919061489c565b8151811061154657611546613c1c565b60200260200101519150858210156115bf576040517f08c379a000000000000000000000000000000000000000000000000000000000815260206004820152601760248201527f696e73756666696369656e742d616d6f756e742d6f757400000000000000000060448201526064015b60405180910390fd5b8215611735576117356116487f0000000000000000000000000000000000000000000000000000000000000000876000815181106115ff576115ff613c1c565b60200260200101518860018151811061161a5761161a613c1c565b60200260200101517f0000000000000000000000000000000000000000000000000000000000000000612b8a565b8660008151811061165b5761165b613c1c565b60209081029190910101516040517f70a0823100000000000000000000000000000000000000000000000000000000815230600482015273ffffffffffffffffffffffffffffffffffffffff909116906370a0823190602401602060405180830381865afa1580156116d1573d6000803e3d6000fd5b505050506040513d601f19601f820116820180604052508101906116f59190613dad565b8760008151811061170857611708613c1c565b602002602001015173ffffffffffffffffffffffffffffffffffffffff1661272f9092919063ffffffff16565b611740818686612ca4565b5095945050505050565b60008160200151600014156119565781516040517f70a0823100000000000000000000000000000000000000000000000000000000815230600482015260009173ffffffffffffffffffffffffffffffffffffffff16906370a0823190602401602060405180830381865afa1580156117c7573d6000803e3d6000fd5b505050506040513d601f19601f820116820180604052508101906117eb9190613dad565b905061181c83600001517f0000000000000000000000000000000000000000000000000000000000000000836112f5565b7f000000000000000000000000000000000000000000000000000000000000000073ffffffffffffffffffffffffffffffffffffffff166302b9446c84600001517f0000000000000000000000000000000000000000000000000000000000000000866060015160008151811061189557611895613c1c565b6020908102919091010151516040517fffffffff0000000000000000000000000000000000000000000000000000000060e086901b16815273ffffffffffffffffffffffffffffffffffffffff93841660048201529183166024830152919091166044820152606481018490526000608482015260a40160408051808303816000875af115801561192a573d6000803e3d6000fd5b505050506040513d601f19601f8201168201806040525081019061194e91906147a3565b602085015250505b60608201515160005b81811015611a2f578360600151818151811061197d5761197d613c1c565b60200260200101516000015173ffffffffffffffffffffffffffffffffffffffff1663627dd56a856060015183815181106119ba576119ba613c1c565b6020026020010151602001516040518263ffffffff1660e01b81526004016119e2919061470f565b6020604051808303816000875af1158015611a01573d6000803e3d6000fd5b505050506040513d601f19601f82011682018060405250810190611a259190613dad565b925060010161195f565b508260400151821015611a6e576040517fc9f52c7100000000000000000000000000000000000000000000000000000000815260040160405180910390fd5b50919050565b80515160005b81811015611c84577f000000000000000000000000000000000000000000000000000000000000000073ffffffffffffffffffffffffffffffffffffffff1663f18d03cc84600001518381518110611ad457611ad4613c1c565b6020026020010151600001513086600001518581518110611af757611af7613c1c565b60200260200101516020015187600001518681518110611b1957611b19613c1c565b6020908102919091010151606001516040517fffffffff0000000000000000000000000000000000000000000000000000000060e087901b16815273ffffffffffffffffffffffffffffffffffffffff94851660048201529284166024840152921660448201526064810191909152608401600060405180830381600087803b158015611ba557600080fd5b505af1158015611bb9573d6000803e3d6000fd5b5050505082600001518181518110611bd357611bd3613c1c565b60200260200101516020015173ffffffffffffffffffffffffffffffffffffffff1663627dd56a84600001518381518110611c1057611c10613c1c565b6020026020010151608001516040518263ffffffff1660e01b8152600401611c38919061470f565b6020604051808303816000875af1158015611c57573d6000803e3d6000fd5b505050506040513d601f19601f82011682018060405250810190611c7b9190613dad565b50600101611a7a565b505060208101515160005b81811015611fc85760007f000000000000000000000000000000000000000000000000000000000000000073ffffffffffffffffffffffffffffffffffffffff1663f7888aec85602001518481518110611ceb57611ceb613c1c565b6020908102919091010151516040517fffffffff0000000000000000000000000000000000000000000000000000000060e084901b16815273ffffffffffffffffffffffffffffffffffffffff9091166004820152306024820152604401602060405180830381865afa158015611d66573d6000803e3d6000fd5b505050506040513d601f19601f82011682018060405250810190611d8a9190613dad565b90506000611d9a6008600a614ad9565b85602001518481518110611db057611db0613c1c565b60200260200101516040015167ffffffffffffffff1683611dd19190614ae8565b611ddb9190614b25565b90507f000000000000000000000000000000000000000000000000000000000000000073ffffffffffffffffffffffffffffffffffffffff1663f18d03cc86602001518581518110611e2f57611e2f613c1c565b6020026020010151600001513088602001518781518110611e5257611e52613c1c565b60209081029190910181015101516040517fffffffff0000000000000000000000000000000000000000000000000000000060e086901b16815273ffffffffffffffffffffffffffffffffffffffff9384166004820152918316602483015291909116604482015260648101849052608401600060405180830381600087803b158015611ede57600080fd5b505af1158015611ef2573d6000803e3d6000fd5b5050505084602001518381518110611f0c57611f0c613c1c565b60200260200101516020015173ffffffffffffffffffffffffffffffffffffffff1663627dd56a86602001518581518110611f4957611f49613c1c565b6020026020010151606001516040518263ffffffff1660e01b8152600401611f71919061470f565b6020604051808303816000875af1158015611f90573d6000803e3d6000fd5b505050506040513d601f19601f82011682018060405250810190611fb49190613dad565b505050611fc18160010190565b9050611c8f565b505060408101515160005b818110156112f05760007f000000000000000000000000000000000000000000000000000000000000000073ffffffffffffffffffffffffffffffffffffffff1663f7888aec8560400151848151811061202f5761202f613c1c565b6020908102919091010151516040517fffffffff0000000000000000000000000000000000000000000000000000000060e084901b16815273ffffffffffffffffffffffffffffffffffffffff9091166004820152306024820152604401602060405180830381865afa1580156120aa573d6000803e3d6000fd5b505050506040513d601f19601f820116820180604052508101906120ce9190613dad565b9050836040015182815181106120e6576120e6613c1c565b60200260200101516060015181101561212b576040517fc9f52c7100000000000000000000000000000000000000000000000000000000815260040160405180910390fd5b8360400151828151811061214157612141613c1c565b60200260200101516040015115612289577f000000000000000000000000000000000000000000000000000000000000000073ffffffffffffffffffffffffffffffffffffffff166397da6d30856040015184815181106121a4576121a4613c1c565b60200260200101516000015130876040015186815181106121c7576121c7613c1c565b60209081029190910181015101516040517fffffffff0000000000000000000000000000000000000000000000000000000060e086901b16815273ffffffffffffffffffffffffffffffffffffffff93841660048201529183166024830152919091166044820152600060648201526084810184905260a40160408051808303816000875af115801561225e573d6000803e3d6000fd5b505050506040513d601f19601f8201168201806040525081019061228291906147a3565b50506123a3565b7f000000000000000000000000000000000000000000000000000000000000000073ffffffffffffffffffffffffffffffffffffffff1663f18d03cc856040015184815181106122db576122db613c1c565b60200260200101516000015130876040015186815181106122fe576122fe613c1c565b60209081029190910181015101516040517fffffffff0000000000000000000000000000000000000000000000000000000060e086901b16815273ffffffffffffffffffffffffffffffffffffffff9384166004820152918316602483015291909116604482015260648101849052608401600060405180830381600087803b15801561238a57600080fd5b505af115801561239e573d6000803e3d6000fd5b505050505b50600101611fd3565b60008461010001518484848861014001516040516020016123d1959493929190614b60565b6040516020818303038152906040529050620186a08561012001511015612424576040517f1c26714c00000000000000000000000000000000000000000000000000000000815260040160405180910390fd5b7f000000000000000000000000000000000000000000000000000000000000000073ffffffffffffffffffffffffffffffffffffffff16639fbf10fc47876000015188604001518960600151338b60800151600014156125175760208c01516040517f70a0823100000000000000000000000000000000000000000000000000000000815230600482015273ffffffffffffffffffffffffffffffffffffffff909116906370a0823190602401602060405180830381865afa1580156124ee573d6000803e3d6000fd5b505050506040513d601f19601f820116820180604052508101906125129190613dad565b61251d565b8b608001515b8c60a0015160405180606001604052808f610120015181526020018f60c0015181526020018f60e00151604051602001612582919060609190911b7fffffffffffffffffffffffffffffffffffffffff00000000000000000000000016815260140190565b6040516020818303038152906040528152508e60e001516040516020016125d4919060609190911b7fffffffffffffffffffffffffffffffffffffffff00000000000000000000000016815260140190565b6040516020818303038152906040528b6040518b63ffffffff1660e01b815260040161260899989796959493929190614bc8565b6000604051808303818588803b15801561262157600080fd5b505af1158015612635573d6000803e3d6000fd5b50506040517fa87376e90000000000000000000000000000000000000000000000000000000081527e0100000000000000000000000000000000000000000000000000000000000060048201527f000000000000000000000000000000000000000000000000000000000000000073ffffffffffffffffffffffffffffffffffffffff16935063a87376e992506024019050600060405180830381600087803b1580156126e157600080fd5b505af11580156126f5573d6000803e3d6000fd5b505050506101408501516040517fef89f27cad105cfe7c63f4a5c70e6b1392b571ff544a83de4bf71ceb46bacfee90600090a25050505050565b60405173ffffffffffffffffffffffffffffffffffffffff83166024820152604481018290526112f09084907fa9059cbb00000000000000000000000000000000000000000000000000000000906064015b604080517fffffffffffffffffffffffffffffffffffffffffffffffffffffffffffffffe08184030181529190526020810180517bffffffffffffffffffffffffffffffffffffffffffffffffffffffff167fffffffff0000000000000000000000000000000000000000000000000000000090931692909217909152612ee1565b8015806128a357506040517fdd62ed3e00000000000000000000000000000000000000000000000000000000815230600482015273ffffffffffffffffffffffffffffffffffffffff838116602483015284169063dd62ed3e90604401602060405180830381865afa15801561287d573d6000803e3d6000fd5b505050506040513d601f19601f820116820180604052508101906128a19190613dad565b155b61292f576040517f08c379a000000000000000000000000000000000000000000000000000000000815260206004820152603660248201527f5361666545524332303a20617070726f76652066726f6d206e6f6e2d7a65726f60448201527f20746f206e6f6e2d7a65726f20616c6c6f77616e63650000000000000000000060648201526084016115b6565b60405173ffffffffffffffffffffffffffffffffffffffff83166024820152604481018290526112f09084907f095ea7b30000000000000000000000000000000000000000000000000000000090606401612781565b60405173ffffffffffffffffffffffffffffffffffffffff808516602483015283166044820152606481018290526113759085907f23b872dd0000000000000000000000000000000000000000000000000000000090608401612781565b6060600283511015612a51576040517f08c379a000000000000000000000000000000000000000000000000000000000815260206004820152601e60248201527f556e697377617056324c6962726172793a20494e56414c49445f50415448000060448201526064016115b6565b825167ffffffffffffffff811115612a6b57612a6b6136e7565b604051908082528060200260200182016040528015612a94578160200160208202803683370190505b5090508381600081518110612aab57612aab613c1c565b60200260200101818152505060005b60018451612ac8919061489c565b811015612b8157600080612b1c88878581518110612ae857612ae8613c1c565b602002602001015188866001612afe9190614c53565b81518110612b0e57612b0e613c1c565b602002602001015188612fed565b91509150612b44848481518110612b3557612b35613c1c565b602002602001015183836130ee565b84612b50856001614c53565b81518110612b6057612b60613c1c565b60200260200101818152505050508080612b7990614c6b565b915050612aba565b50949350505050565b6000806000612b998686613268565b6040517fffffffffffffffffffffffffffffffffffffffff000000000000000000000000606084811b8216602084015283901b166034820152919350915087906048016040516020818303038152906040528051906020012085604051602001612c63939291907fff00000000000000000000000000000000000000000000000000000000000000815260609390931b7fffffffffffffffffffffffffffffffffffffffff0000000000000000000000001660018401526015830191909152603582015260550190565b604080517fffffffffffffffffffffffffffffffffffffffffffffffffffffffffffffffe08184030181529190528051602090910120979650505050505050565b60005b60018351612cb5919061489c565b81101561137557600080848381518110612cd157612cd1613c1c565b602002602001015185846001612ce79190614c53565b81518110612cf757612cf7613c1c565b6020026020010151915091506000612d0f8383613268565b509050600087612d20866001614c53565b81518110612d3057612d30613c1c565b602002602001015190506000808373ffffffffffffffffffffffffffffffffffffffff168673ffffffffffffffffffffffffffffffffffffffff1614612d7857826000612d7c565b6000835b91509150600060028a51612d90919061489c565b8810612d9c5788612ddd565b612ddd7f0000000000000000000000000000000000000000000000000000000000000000878c612dcd8c6002614c53565b8151811061161a5761161a613c1c565b9050612e2b7f000000000000000000000000000000000000000000000000000000000000000088887f0000000000000000000000000000000000000000000000000000000000000000612b8a565b73ffffffffffffffffffffffffffffffffffffffff1663022c0d9f84848460006040519080825280601f01601f191660200182016040528015612e75576020820181803683370190505b506040518563ffffffff1660e01b8152600401612e959493929190614ca4565b600060405180830381600087803b158015612eaf57600080fd5b505af1158015612ec3573d6000803e3d6000fd5b50505050505050505050508080612ed990614c6b565b915050612ca7565b6000612f43826040518060400160405280602081526020017f5361666545524332303a206c6f772d6c6576656c2063616c6c206661696c65648152508573ffffffffffffffffffffffffffffffffffffffff166133ed9092919063ffffffff16565b8051909150156112f05780806020019051810190612f619190614cdf565b6112f0576040517f08c379a000000000000000000000000000000000000000000000000000000000815260206004820152602a60248201527f5361666545524332303a204552433230206f7065726174696f6e20646964206e60448201527f6f7420737563636565640000000000000000000000000000000000000000000060648201526084016115b6565b6000806000612ffc8686613268565b50905060008061300e89898989612b8a565b73ffffffffffffffffffffffffffffffffffffffff16630902f1ac6040518163ffffffff1660e01b8152600401606060405180830381865afa158015613058573d6000803e3d6000fd5b505050506040513d601f19601f8201168201806040525081019061307c9190614d18565b506dffffffffffffffffffffffffffff1691506dffffffffffffffffffffffffffff1691508273ffffffffffffffffffffffffffffffffffffffff168873ffffffffffffffffffffffffffffffffffffffff16146130db5780826130de565b81815b909a909950975050505050505050565b600080841161317f576040517f08c379a000000000000000000000000000000000000000000000000000000000815260206004820152602b60248201527f556e697377617056324c6962726172793a20494e53554646494349454e545f4960448201527f4e5055545f414d4f554e5400000000000000000000000000000000000000000060648201526084016115b6565b60008311801561318f5750600082115b61321b576040517f08c379a000000000000000000000000000000000000000000000000000000000815260206004820152602860248201527f556e697377617056324c6962726172793a20494e53554646494349454e545f4c60448201527f495155494449545900000000000000000000000000000000000000000000000060648201526084016115b6565b6000613229856103e5613406565b905060006132378285613406565b905060006132518361324b886103e8613406565b90613496565b905061325d8183614b25565b979650505050505050565b6000808273ffffffffffffffffffffffffffffffffffffffff168473ffffffffffffffffffffffffffffffffffffffff161415613327576040517f08c379a000000000000000000000000000000000000000000000000000000000815260206004820152602560248201527f556e697377617056324c6962726172793a204944454e544943414c5f4144445260448201527f455353455300000000000000000000000000000000000000000000000000000060648201526084016115b6565b8273ffffffffffffffffffffffffffffffffffffffff168473ffffffffffffffffffffffffffffffffffffffff1610613361578284613364565b83835b909250905073ffffffffffffffffffffffffffffffffffffffff82166133e6576040517f08c379a000000000000000000000000000000000000000000000000000000000815260206004820152601e60248201527f556e697377617056324c6962726172793a205a45524f5f41444452455353000060448201526064016115b6565b9250929050565b60606133fc848460008561350e565b90505b9392505050565b600081158061342a5750828261341c8183614ae8565b92506134289083614b25565b145b613490576040517f08c379a000000000000000000000000000000000000000000000000000000000815260206004820152601460248201527f64732d6d6174682d6d756c2d6f766572666c6f7700000000000000000000000060448201526064016115b6565b92915050565b6000826134a38382614c53565b9150811015613490576040517f08c379a000000000000000000000000000000000000000000000000000000000815260206004820152601460248201527f64732d6d6174682d6164642d6f766572666c6f7700000000000000000000000060448201526064016115b6565b6060824710156135a0576040517f08c379a000000000000000000000000000000000000000000000000000000000815260206004820152602660248201527f416464726573733a20696e73756666696369656e742062616c616e636520666f60448201527f722063616c6c000000000000000000000000000000000000000000000000000060648201526084016115b6565b73ffffffffffffffffffffffffffffffffffffffff85163b61361e576040517f08c379a000000000000000000000000000000000000000000000000000000000815260206004820152601d60248201527f416464726573733a2063616c6c20746f206e6f6e2d636f6e747261637400000060448201526064016115b6565b6000808673ffffffffffffffffffffffffffffffffffffffff1685876040516136479190614d68565b60006040518083038185875af1925050503d8060008114613684576040519150601f19603f3d011682016040523d82523d6000602084013e613689565b606091505b509150915061325d828286606083156136a35750816133ff565b8251156136b35782518084602001fd5b816040517f08c379a00000000000000000000000000000000000000000000000000000000081526004016115b6919061470f565b7f4e487b7100000000000000000000000000000000000000000000000000000000600052604160045260246000fd5b6040516080810167ffffffffffffffff81118282101715613739576137396136e7565b60405290565b6040805190810167ffffffffffffffff81118282101715613739576137396136e7565b6040516060810167ffffffffffffffff81118282101715613739576137396136e7565b60405160a0810167ffffffffffffffff81118282101715613739576137396136e7565b604051610160810167ffffffffffffffff81118282101715613739576137396136e7565b604051601f82017fffffffffffffffffffffffffffffffffffffffffffffffffffffffffffffffe016810167ffffffffffffffff81118282101715613813576138136136e7565b604052919050565b600067ffffffffffffffff821115613835576138356136e7565b5060051b60200190565b60ff81168114610f8d57600080fd5b600082601f83011261385f57600080fd5b8135602061387461386f8361381b565b6137cc565b82815260059290921b8401810191818101908684111561389357600080fd5b8286015b848110156138ae5780358352918301918301613897565b509695505050505050565b600067ffffffffffffffff8211156138d3576138d36136e7565b50601f017fffffffffffffffffffffffffffffffffffffffffffffffffffffffffffffffe01660200190565b600082601f83011261391057600080fd5b813561391e61386f826138b9565b81815284602083860101111561393357600080fd5b816020850160208301376000918101602001919091529392505050565b600082601f83011261396157600080fd5b8135602061397161386f8361381b565b82815260059290921b8401810191818101908684111561399057600080fd5b8286015b848110156138ae57803567ffffffffffffffff8111156139b45760008081fd5b6139c28986838b01016138ff565b845250918301918301613994565b6000806000606084860312156139e557600080fd5b833567ffffffffffffffff808211156139fd57600080fd5b818601915086601f830112613a1157600080fd5b81356020613a2161386f8361381b565b82815260059290921b8401810191818101908a841115613a4057600080fd5b948201945b83861015613a67578535613a588161383f565b82529482019490820190613a45565b97505087013592505080821115613a7d57600080fd5b613a898783880161384e565b93506040860135915080821115613a9f57600080fd5b50613aac86828701613950565b9150509250925092565b61ffff81168114610f8d57600080fd5b73ffffffffffffffffffffffffffffffffffffffff81168114610f8d57600080fd5b60008060008060008060c08789031215613b0157600080fd5b8635613b0c81613ab6565b95506020870135613b1c8161383f565b94506040870135613b2c81613ac6565b9350606087013592506080870135915060a087013567ffffffffffffffff811115613b5657600080fd5b613b6289828a016138ff565b9150509295509295509295565b60008060008060008060c08789031215613b8857600080fd5b8635613b9381613ab6565b9550602087013567ffffffffffffffff80821115613bb057600080fd5b613bbc8a838b016138ff565b96506040890135955060608901359150613bd582613ac6565b9093506080880135925060a08801359080821115613bf257600080fd5b50613b6289828a016138ff565b600060208284031215613c1157600080fd5b81356133ff81613ac6565b7f4e487b7100000000000000000000000000000000000000000000000000000000600052603260045260246000fd5b8051613c5681613ac6565b919050565b80518015158114613c5657600080fd5b600080600080600060a08688031215613c8357600080fd5b8551613c8e81613ac6565b9450613c9c60208701613c5b565b93506040860151613cac8161383f565b6060870151608090970151959894975095949392505050565b60008060008060808587031215613cdb57600080fd5b8451613ce681613ac6565b6020860151909450613cf781613ac6565b6040860151606090960151949790965092505050565b600080600080600060a08688031215613d2557600080fd5b8551613d3081613ac6565b6020870151909550613d4181613ac6565b6040870151606088015191955093509150613d5e60808701613c5b565b90509295509295909350565b600080600060608486031215613d7f57600080fd5b8351613d8a81613ac6565b6020850151909350613d9b81613ac6565b80925050604084015190509250925092565b600060208284031215613dbf57600080fd5b5051919050565b60008060408385031215613dd957600080fd5b8251613de481613ac6565b6020840151909250613df581613ac6565b809150509250929050565b60008060408385031215613e1357600080fd5b8251613e1e81613ac6565b6020939093015192949293505050565b60008060008060808587031215613e4457600080fd5b845193506020808601519350604086015167ffffffffffffffff811115613e6a57600080fd5b8601601f81018813613e7b57600080fd5b8051613e8961386f8261381b565b81815260059190911b8201830190838101908a831115613ea857600080fd5b928401925b82841015613ecf578351613ec081613ac6565b82529284019290840190613ead565b8096505050505050613ee360608601613c4b565b905092959194509250565b60005b83811015613f09578181015183820152602001613ef1565b838111156113755750506000910152565b600082601f830112613f2b57600080fd5b8151613f3961386f826138b9565b818152846020838601011115613f4e57600080fd5b613f5f826020830160208701613eee565b949350505050565b60006020808385031215613f7a57600080fd5b825167ffffffffffffffff80821115613f9257600080fd5b9084019060808287031215613fa657600080fd5b613fae613716565b8251613fb981613ac6565b8152828401518482015260408084015181830152606084015183811115613fdf57600080fd5b80850194505087601f850112613ff457600080fd5b835161400261386f8261381b565b81815260059190911b8501860190868101908a83111561402157600080fd5b8787015b838110156140bb5780518781111561403d5760008081fd5b8801808d037fffffffffffffffffffffffffffffffffffffffffffffffffffffffffffffffe0018613156140715760008081fd5b61407961373f565b8a82015161408681613ac6565b8152818701518981111561409a5760008081fd5b6140a88f8d83860101613f1a565b828d015250845250918801918801614025565b506060850152509198975050505050505050565b600082601f8301126140e057600080fd5b815160206140f061386f8361381b565b82815260059290921b8401810191818101908684111561410f57600080fd5b8286015b848110156138ae57805167ffffffffffffffff808211156141345760008081fd5b81890191506080807fffffffffffffffffffffffffffffffffffffffffffffffffffffffffffffffe0848d0301121561416d5760008081fd5b614175613716565b8784015161418281613ac6565b815260408481015161419381613ac6565b828a015260608581015185811681146141ac5760008081fd5b838301529285015192848411156141c557600091508182fd5b6141d38e8b86890101613f1a565b90830152508652505050918301918301614113565b600082601f8301126141f957600080fd5b8151602061420961386f8361381b565b82815260079290921b8401810191818101908684111561422857600080fd5b8286015b848110156138ae57608081890312156142455760008081fd5b61424d613716565b815161425881613ac6565b81528185015161426781613ac6565b818601526040614278838201613c5b565b908201526060828101519082015283529183019160800161422c565b600060208083850312156142a757600080fd5b825167ffffffffffffffff808211156142bf57600080fd5b90840190606082870312156142d357600080fd5b6142db613762565b8251828111156142ea57600080fd5b8301601f810188136142fb57600080fd5b805161430961386f8261381b565b81815260059190911b8201860190868101908a83111561432857600080fd5b8784015b838110156143f05780518781111561434357600080fd5b850160a0818e037fffffffffffffffffffffffffffffffffffffffffffffffffffffffffffffffe001121561437757600080fd5b61437f613785565b8a82015161438c81613ac6565b8152604082015161439c81613ac6565b818c01526143ac60608301613c5b565b60408201526080820151606082015260a0820151898111156143ce5760008081fd5b6143dc8f8d83860101613f1a565b60808301525084525091880191880161432c565b508452505050828401518281111561440757600080fd5b614413888286016140cf565b8583015250604083015193508184111561442c57600080fd5b614438878585016141e8565b60408201529695505050505050565b8051613c5681613ab6565b600082601f83011261446357600080fd5b8151602061447361386f8361381b565b82815260059290921b8401810191818101908684111561449257600080fd5b8286015b848110156138ae5780516144a98161383f565b8352918301918301614496565b600082601f8301126144c757600080fd5b815160206144d761386f8361381b565b82815260059290921b840181019181810190868411156144f657600080fd5b8286015b848110156138ae57805183529183019183016144fa565b600082601f83011261452257600080fd5b8151602061453261386f8361381b565b82815260059290921b8401810191818101908684111561455157600080fd5b8286015b848110156138ae57805167ffffffffffffffff8111156145755760008081fd5b6145838986838b0101613f1a565b845250918301918301614555565b6000806000808486036101c08112156145a957600080fd5b610160808212156145b957600080fd5b6145c16137a8565b91506145cc87614447565b82526145da60208801613c4b565b602083015260408701516040830152606087015160608301526080870151608083015260a087015160a083015260c087015160c083015261461d60e08801613c4b565b60e0830152610100614630818901613c4b565b908301526101208781015190830152610140808801519083015286015190945067ffffffffffffffff8082111561466657600080fd5b61467288838901614452565b945061018087015191508082111561468957600080fd5b614695888389016144b6565b93506101a08701519150808211156146ac57600080fd5b506146b987828801614511565b91505092959194509250565b600081518084526146dd816020860160208601613eee565b601f017fffffffffffffffffffffffffffffffffffffffffffffffffffffffffffffffe0169290920160200192915050565b6020815260006133ff60208301846146c5565b80518252602081015160208301526000604082015160606040850152613f5f60608501826146c5565b61ffff8616815260ff8516602082015260a06040820152600061477160a08301866146c5565b828103606084015261478381866146c5565b905082810360808401526147978185614722565b98975050505050505050565b600080604083850312156147b657600080fd5b505080516020909101519092909150565b600080600080600060a086880312156147df57600080fd5b85516147ea81613ac6565b602087015190955067ffffffffffffffff8082111561480857600080fd5b61481489838a01614452565b9550604088015191508082111561482a57600080fd5b61483689838a016144b6565b9450606088015191508082111561484c57600080fd5b5061485988828901614511565b925050608086015190509295509295909350565b7f4e487b7100000000000000000000000000000000000000000000000000000000600052601160045260246000fd5b6000828210156148ae576148ae61486d565b500390565b600081518084526020808501945080840160005b838110156148e657815160ff16875295820195908201906001016148c7565b509495945050505050565b600081518084526020808501945080840160005b838110156148e657815187529582019590820190600101614905565b600081518084526020808501808196508360051b8101915082860160005b858110156149695782840389526149578483516146c5565b9885019893509084019060010161493f565b5091979650505050505050565b60608152600061498960608301866148b3565b828103602084015261499b81866148f1565b905082810360408401526149af8185614921565b9695505050505050565b600181815b80851115614a1257817fffffffffffffffffffffffffffffffffffffffffffffffffffffffffffffffff048211156149f8576149f861486d565b80851615614a0557918102915b93841c93908002906149be565b509250929050565b600082614a2957506001613490565b81614a3657506000613490565b8160018114614a4c5760028114614a5657614a72565b6001915050613490565b60ff841115614a6757614a6761486d565b50506001821b613490565b5060208310610133831016604e8410600b8410161715614a95575081810a613490565b614a9f83836149b9565b807fffffffffffffffffffffffffffffffffffffffffffffffffffffffffffffffff04821115614ad157614ad161486d565b029392505050565b60006133ff60ff841683614a1a565b6000817fffffffffffffffffffffffffffffffffffffffffffffffffffffffffffffffff0483118215151615614b2057614b2061486d565b500290565b600082614b5b577f4e487b7100000000000000000000000000000000000000000000000000000000600052601260045260246000fd5b500490565b73ffffffffffffffffffffffffffffffffffffffff8616815260a060208201526000614b8f60a08301876148b3565b8281036040840152614ba181876148f1565b90508281036060840152614bb58186614921565b9150508260808301529695505050505050565b600061012061ffff8c1683528a602084015289604084015273ffffffffffffffffffffffffffffffffffffffff891660608401528760808401528660a08401528060c0840152614c1a81840187614722565b905082810360e0840152614c2e81866146c5565b9050828103610100840152614c4381856146c5565b9c9b505050505050505050505050565b60008219821115614c6657614c6661486d565b500190565b60007fffffffffffffffffffffffffffffffffffffffffffffffffffffffffffffffff821415614c9d57614c9d61486d565b5060010190565b84815283602082015273ffffffffffffffffffffffffffffffffffffffff831660408201526080606082015260006149af60808301846146c5565b600060208284031215614cf157600080fd5b6133ff82613c5b565b80516dffffffffffffffffffffffffffff81168114613c5657600080fd5b600080600060608486031215614d2d57600080fd5b614d3684614cfa565b9250614d4460208501614cfa565b9150604084015163ffffffff81168114614d5d57600080fd5b809150509250925092565b60008251614d7a818460208701613eee565b919091019291505056fea26469706673582212200a7a9fb431fa6f607cc843aea7a3607f20e6582e550bac506537deed68e3cff264736f6c634300080b0033",
  "devdoc": {
    "details": "Supports both BentoBox and Wallet. Supports both Trident and Legacy AMM. Uses Stargate as bridge.",
    "kind": "dev",
    "methods": {
      "approveToStargateRouter(address)": {
        "params": {
          "token": "token to approve"
        }
      },
      "cook(uint8[],uint256[],bytes[])": {
        "details": "The function gets invoked both at the src and dst chain.",
        "params": {
          "actions": "An array with a sequence of actions to execute (see ACTION_ declarations).",
          "datas": "A one-to-one mapped array to `actions`. Contains abi encoded data of function arguments.",
          "values": "A one-to-one mapped array to `actions`. Native token amount to send along action."
        }
      },
      "getFee(uint16,uint8,address,uint256,uint256,bytes)": {
        "params": {
          "_dstChainId": "stargate dst chainId",
          "_dustAmount": "dust amount to be received at the dst chain",
          "_functionType": "stargate Function type 1 for swap. See more at https://stargateprotocol.gitbook.io/stargate/developers/function-types",
          "_gas": "extra gas being sent",
          "_payload": "payload being sent at the dst chain",
          "_receiver": "sushiXswap on the dst chain"
        }
      },
      "sgReceive(uint16,bytes,uint256,address,uint256,bytes)": {
        "params": {
          "_token": "bridge token received",
          "amountLD": "amount received",
          "payload": "ABI-Encoded data received from src chain"
        }
      }
    },
    "title": "SushiXSwap",
    "version": 1
  },
  "userdoc": {
    "kind": "user",
    "methods": {
      "approveToStargateRouter(address)": {
        "notice": "Approves token to the Stargate Router"
      },
      "bentoBox()": {
        "notice": "BentoBox token vault"
      },
      "cook(uint8[],uint256[],bytes[])": {
        "notice": "Executes a set of actions and allows composability (contract calls) to other contracts."
      },
      "factory()": {
        "notice": "Sushiswap Legacy AMM Factory"
      },
      "getFee(uint16,uint8,address,uint256,uint256,bytes)": {
        "notice": "Get the fees to be paid in native token for the swap"
      },
      "pairCodeHash()": {
        "notice": "Sushiswap Legacy AMM PairCodeHash"
      },
      "sgReceive(uint16,bytes,uint256,address,uint256,bytes)": {
        "notice": "Receiver function on dst chain"
      },
      "stargateRouter()": {
        "notice": "Stargate Router for cross chain interaction"
      },
      "stargateWidget()": {
        "notice": "Stargate Widget for stargate partner fee"
      }
    },
    "notice": "Enables cross chain swap for sushiswap.",
    "version": 1
  },
  "storageLayout": {
    "storage": [],
    "types": null
  }
}